{
  "_format": "hh-sol-artifact-1",
  "contractName": "Project",
  "sourceName": "contracts/CFContract.sol",
  "abi": [
    {
      "inputs": [
        {
          "internalType": "string",
          "name": "_title",
          "type": "string"
        },
        {
          "internalType": "string",
          "name": "_description",
          "type": "string"
        },
        {
          "internalType": "uint256",
          "name": "_target",
          "type": "uint256"
        },
        {
          "internalType": "string",
          "name": "_preferredCurrency",
          "type": "string"
        }
      ],
      "stateMutability": "nonpayable",
      "type": "constructor"
    },
    {
      "anonymous": false,
      "inputs": [
        {
          "indexed": true,
          "internalType": "address",
          "name": "contributor",
          "type": "address"
        },
        {
          "indexed": false,
          "internalType": "uint256",
          "name": "amount",
          "type": "uint256"
        },
        {
          "indexed": false,
          "internalType": "uint256",
          "name": "timestamp",
          "type": "uint256"
        }
      ],
      "name": "PaymentLogged",
      "type": "event"
    },
    {
      "inputs": [],
      "name": "activate",
      "outputs": [],
      "stateMutability": "nonpayable",
      "type": "function"
    },
    {
      "inputs": [],
      "name": "deactivate",
      "outputs": [],
      "stateMutability": "nonpayable",
      "type": "function"
    },
    {
      "inputs": [],
      "name": "getHighestContribution",
      "outputs": [
        {
          "components": [
            {
              "internalType": "address",
              "name": "contributor",
              "type": "address"
            },
            {
              "internalType": "uint256",
              "name": "amount",
              "type": "uint256"
            },
            {
              "internalType": "uint256",
              "name": "timestamp",
              "type": "uint256"
            }
          ],
          "internalType": "struct Project.Transaction",
          "name": "",
          "type": "tuple"
        }
      ],
      "stateMutability": "view",
      "type": "function"
    },
    {
      "inputs": [],
      "name": "getProjectDetails",
      "outputs": [
        {
          "internalType": "address",
          "name": "",
          "type": "address"
        },
        {
          "internalType": "string",
          "name": "",
          "type": "string"
        },
        {
          "internalType": "string",
          "name": "",
          "type": "string"
        },
        {
          "internalType": "uint256",
          "name": "",
          "type": "uint256"
        },
        {
          "internalType": "uint256",
          "name": "",
          "type": "uint256"
        },
        {
          "internalType": "string",
          "name": "",
          "type": "string"
        },
        {
          "internalType": "bool",
          "name": "",
          "type": "bool"
        },
        {
          "internalType": "uint256",
          "name": "",
          "type": "uint256"
        }
      ],
      "stateMutability": "view",
      "type": "function"
    },
    {
      "inputs": [
        {
          "internalType": "uint256",
          "name": "index",
          "type": "uint256"
        }
      ],
      "name": "getTransaction",
      "outputs": [
        {
          "internalType": "address",
          "name": "contributor",
          "type": "address"
        },
        {
          "internalType": "uint256",
          "name": "amount",
          "type": "uint256"
        },
        {
          "internalType": "uint256",
          "name": "timestamp",
          "type": "uint256"
        }
      ],
      "stateMutability": "view",
      "type": "function"
    },
    {
      "inputs": [],
      "name": "getTransactionCount",
      "outputs": [
        {
          "internalType": "uint256",
          "name": "",
          "type": "uint256"
        }
      ],
      "stateMutability": "view",
      "type": "function"
    },
    {
      "inputs": [
        {
          "internalType": "uint256",
          "name": "amount",
          "type": "uint256"
        }
      ],
      "name": "logPayment",
      "outputs": [],
      "stateMutability": "nonpayable",
      "type": "function"
    },
    {
      "inputs": [
        {
          "internalType": "uint256",
          "name": "",
          "type": "uint256"
        }
      ],
      "name": "transactions",
      "outputs": [
        {
          "internalType": "address",
          "name": "contributor",
          "type": "address"
        },
        {
          "internalType": "uint256",
          "name": "amount",
          "type": "uint256"
        },
        {
          "internalType": "uint256",
          "name": "timestamp",
          "type": "uint256"
        }
      ],
      "stateMutability": "view",
      "type": "function"
    }
  ],
  "bytecode": "0x608060405234801561001057600080fd5b506040516113f33803806113f38339818101604052810190610032919061027f565b336000806101000a81548173ffffffffffffffffffffffffffffffffffffffff021916908373ffffffffffffffffffffffffffffffffffffffff16021790555083600190816100819190610551565b5082600290816100919190610551565b506001600360006101000a81548160ff0219169083151502179055508160048190555080600590816100c39190610551565b504260078190555050505050610623565b6000604051905090565b600080fd5b600080fd5b600080fd5b600080fd5b6000601f19601f8301169050919050565b7f4e487b7100000000000000000000000000000000000000000000000000000000600052604160045260246000fd5b61013b826100f2565b810181811067ffffffffffffffff8211171561015a57610159610103565b5b80604052505050565b600061016d6100d4565b90506101798282610132565b919050565b600067ffffffffffffffff82111561019957610198610103565b5b6101a2826100f2565b9050602081019050919050565b60005b838110156101cd5780820151818401526020810190506101b2565b60008484015250505050565b60006101ec6101e78461017e565b610163565b905082815260208101848484011115610208576102076100ed565b5b6102138482856101af565b509392505050565b600082601f8301126102305761022f6100e8565b5b81516102408482602086016101d9565b91505092915050565b6000819050919050565b61025c81610249565b811461026757600080fd5b50565b60008151905061027981610253565b92915050565b60008060008060808587031215610299576102986100de565b5b600085015167ffffffffffffffff8111156102b7576102b66100e3565b5b6102c38782880161021b565b945050602085015167ffffffffffffffff8111156102e4576102e36100e3565b5b6102f08782880161021b565b93505060406103018782880161026a565b925050606085015167ffffffffffffffff811115610322576103216100e3565b5b61032e8782880161021b565b91505092959194509250565b600081519050919050565b7f4e487b7100000000000000000000000000000000000000000000000000000000600052602260045260246000fd5b6000600282049050600182168061038c57607f821691505b60208210810361039f5761039e610345565b5b50919050565b60008190508160005260206000209050919050565b60006020601f8301049050919050565b600082821b905092915050565b6000600883026104077fffffffffffffffffffffffffffffffffffffffffffffffffffffffffffffffff826103ca565b61041186836103ca565b95508019841693508086168417925050509392505050565b6000819050919050565b600061044e61044961044484610249565b610429565b610249565b9050919050565b6000819050919050565b61046883610433565b61047c61047482610455565b8484546103d7565b825550505050565b600090565b610491610484565b61049c81848461045f565b505050565b5b818110156104c0576104b5600082610489565b6001810190506104a2565b5050565b601f821115610505576104d6816103a5565b6104df846103ba565b810160208510156104ee578190505b6105026104fa856103ba565b8301826104a1565b50505b505050565b600082821c905092915050565b60006105286000198460080261050a565b1980831691505092915050565b60006105418383610517565b9150826002028217905092915050565b61055a8261033a565b67ffffffffffffffff81111561057357610572610103565b5b61057d8254610374565b6105888282856104c4565b600060209050601f8311600181146105bb57600084156105a9578287015190505b6105b38582610535565b86555061061b565b601f1984166105c9866103a5565b60005b828110156105f1578489015182556001820191506020850194506020810190506105cc565b8683101561060e578489015161060a601f891682610517565b8355505b6001600288020188555050505b505050505050565b610dc1806106326000396000f3fe608060405234801561001057600080fd5b50600436106100885760003560e01c806351b42b001161005b57806351b42b00146101055780639ace38c21461010f578063df42aaf314610141578063ff3a9c7e1461015d57610088565b80630409ba8f1461008d5780630f15f4c0146100ab5780632e7700f0146100b557806333ea3dc8146100d3575b600080fd5b610095610182565b6040516100a2919061093d565b60405180910390f35b6100b3610267565b005b6100bd610312565b6040516100ca9190610967565b60405180910390f35b6100ed60048036038101906100e891906109b3565b61031f565b6040516100fc939291906109ef565b60405180910390f35b61010d6103db565b005b610129600480360381019061012491906109b3565b610486565b604051610138939291906109ef565b60405180910390f35b61015b600480360381019061015691906109b3565b6104e0565b005b610165610654565b604051610179989796959493929190610ad1565b60405180910390f35b61018a61086a565b61019261086a565b60005b60088054905081101561025f576000600882815481106101b8576101b7610b64565b5b90600052602060002090600302016040518060600160405290816000820160009054906101000a900473ffffffffffffffffffffffffffffffffffffffff1673ffffffffffffffffffffffffffffffffffffffff1673ffffffffffffffffffffffffffffffffffffffff168152602001600182015481526020016002820154815250509050826020015181602001511115610251578092505b508080600101915050610195565b508091505090565b60008054906101000a900473ffffffffffffffffffffffffffffffffffffffff1673ffffffffffffffffffffffffffffffffffffffff163373ffffffffffffffffffffffffffffffffffffffff16146102f5576040517f08c379a00000000000000000000000000000000000000000000000000000000081526004016102ec90610bdf565b60405180910390fd5b6001600360006101000a81548160ff021916908315150217905550565b6000600880549050905090565b6000806000806008858154811061033957610338610b64565b5b90600052602060002090600302016040518060600160405290816000820160009054906101000a900473ffffffffffffffffffffffffffffffffffffffff1673ffffffffffffffffffffffffffffffffffffffff1673ffffffffffffffffffffffffffffffffffffffff168152602001600182015481526020016002820154815250509050806000015181602001518260400151935093509350509193909250565b60008054906101000a900473ffffffffffffffffffffffffffffffffffffffff1673ffffffffffffffffffffffffffffffffffffffff163373ffffffffffffffffffffffffffffffffffffffff1614610469576040517f08c379a000000000000000000000000000000000000000000000000000000000815260040161046090610bdf565b60405180910390fd5b6000600360006101000a81548160ff021916908315150217905550565b6008818154811061049657600080fd5b90600052602060002090600302016000915090508060000160009054906101000a900473ffffffffffffffffffffffffffffffffffffffff16908060010154908060020154905083565b600360009054906101000a900460ff1661052f576040517f08c379a000000000000000000000000000000000000000000000000000000000815260040161052690610c4b565b60405180910390fd5b600860405180606001604052803373ffffffffffffffffffffffffffffffffffffffff16815260200183815260200142815250908060018154018082558091505060019003906000526020600020906003020160009091909190915060008201518160000160006101000a81548173ffffffffffffffffffffffffffffffffffffffff021916908373ffffffffffffffffffffffffffffffffffffffff1602179055506020820151816001015560408201518160020155505080600660008282546105fa9190610c9a565b925050819055503373ffffffffffffffffffffffffffffffffffffffff167fc8e96309862f7af7fe775dc7f0a7e68def18dc7ae290b442d9c861796c056c438242604051610649929190610cce565b60405180910390a250565b6000606080600080606060008060008054906101000a900473ffffffffffffffffffffffffffffffffffffffff16600160026004546006546005600360009054906101000a900460ff16600754426106ac9190610cf7565b8680546106b890610d5a565b80601f01602080910402602001604051908101604052809291908181526020018280546106e490610d5a565b80156107315780601f1061070657610100808354040283529160200191610731565b820191906000526020600020905b81548152906001019060200180831161071457829003601f168201915b5050505050965085805461074490610d5a565b80601f016020809104026020016040519081016040528092919081815260200182805461077090610d5a565b80156107bd5780601f10610792576101008083540402835291602001916107bd565b820191906000526020600020905b8154815290600101906020018083116107a057829003601f168201915b505050505095508280546107d090610d5a565b80601f01602080910402602001604051908101604052809291908181526020018280546107fc90610d5a565b80156108495780601f1061081e57610100808354040283529160200191610849565b820191906000526020600020905b81548152906001019060200180831161082c57829003601f168201915b50505050509250975097509750975097509750975097509091929394959697565b6040518060600160405280600073ffffffffffffffffffffffffffffffffffffffff16815260200160008152602001600081525090565b600073ffffffffffffffffffffffffffffffffffffffff82169050919050565b60006108cc826108a1565b9050919050565b6108dc816108c1565b82525050565b6000819050919050565b6108f5816108e2565b82525050565b60608201600082015161091160008501826108d3565b50602082015161092460208501826108ec565b50604082015161093760408501826108ec565b50505050565b600060608201905061095260008301846108fb565b92915050565b610961816108e2565b82525050565b600060208201905061097c6000830184610958565b92915050565b600080fd5b610990816108e2565b811461099b57600080fd5b50565b6000813590506109ad81610987565b92915050565b6000602082840312156109c9576109c8610982565b5b60006109d78482850161099e565b91505092915050565b6109e9816108c1565b82525050565b6000606082019050610a0460008301866109e0565b610a116020830185610958565b610a1e6040830184610958565b949350505050565b600081519050919050565b600082825260208201905092915050565b60005b83811015610a60578082015181840152602081019050610a45565b60008484015250505050565b6000601f19601f8301169050919050565b6000610a8882610a26565b610a928185610a31565b9350610aa2818560208601610a42565b610aab81610a6c565b840191505092915050565b60008115159050919050565b610acb81610ab6565b82525050565b600061010082019050610ae7600083018b6109e0565b8181036020830152610af9818a610a7d565b90508181036040830152610b0d8189610a7d565b9050610b1c6060830188610958565b610b296080830187610958565b81810360a0830152610b3b8186610a7d565b9050610b4a60c0830185610ac2565b610b5760e0830184610958565b9998505050505050505050565b7f4e487b7100000000000000000000000000000000000000000000000000000000600052603260045260246000fd5b7f4e6f742070726f6a656374206f776e6572000000000000000000000000000000600082015250565b6000610bc9601183610a31565b9150610bd482610b93565b602082019050919050565b60006020820190508181036000830152610bf881610bbc565b9050919050565b7f50726f6a656374206973206e6f74206163746976650000000000000000000000600082015250565b6000610c35601583610a31565b9150610c4082610bff565b602082019050919050565b60006020820190508181036000830152610c6481610c28565b9050919050565b7f4e487b7100000000000000000000000000000000000000000000000000000000600052601160045260246000fd5b6000610ca5826108e2565b9150610cb0836108e2565b9250828201905080821115610cc857610cc7610c6b565b5b92915050565b6000604082019050610ce36000830185610958565b610cf06020830184610958565b9392505050565b6000610d02826108e2565b9150610d0d836108e2565b9250828203905081811115610d2557610d24610c6b565b5b92915050565b7f4e487b7100000000000000000000000000000000000000000000000000000000600052602260045260246000fd5b60006002820490506001821680610d7257607f821691505b602082108103610d8557610d84610d2b565b5b5091905056fea26469706673582212203e4c0730b30cd45702fabb8e40fa643c2f045517f4a144b2e699491dd1b7dfd664736f6c634300081c0033",
  "linkReferences": {},
  "deployedLinkReferences": {}
}